:020000020000FC
:040000000C9422003A
:040010000C946600E6
:100040000C947F000FEF0DBF18E01EBFF1E0E6E358
:1000500004910CE007B903E008B90FEF0AB90FE308
:1000600004B903E000936C0002E00093680003E031
:100070000093250002EB06BD01E000936E0000E056
:100080000093C1000E946100789445B94398F1E063
:10009000E6E3E50F8491880F8BB90E949700439A9D
:1000A0000E9497000E9497004298F1E0E6E3E60F75
:1000B0008491880F8BB90E949700429A0E94970002
:1000C000E4CF05E005BD02EB06BD08950F930FB721
:1000D0000F935395513079F000C05527409B06C0CF
:1000E00000C0439544FF07C040E005C04A9547FF64
:1000F00002C0442700C00F910FBF0F9118950F93B6
:100100000FB70F9304E606BD7395743629F477276D
:1001100053955A3029F000C00F910FBF0F911895D9
:1001200050E06395663009F0F7CF60E0F5CF0AEF55
:100130000A95F1F708953F065B4F666D7D077F6F67
:06014000777C395E797145
:00000001FF
